:100000000C9434000C9451000C9451000C94510049
:100010000C9451000C9451000C9451000C9451001C
:100020000C9451000C94C8000C9451000C94510095
:100030000C9451000C9451000C9451000C945100FC
:100040000C9451000C9451000C9451000C945100EC
:100050000C9451000C9451000C9451000C945100DC
:100060000C9451000C94510011241FBECFEFD8E026
:10007000DEBFCDBF11E0A0E0B1E0E6E4F6E002C0F3
:1000800005900D92A230B107D9F714E0A2E0B1E0DB
:1000900001C01D92A033B107E1F70E9453000C94F8
:1000A00021030C9400000E9415028DEB90E060E0AB
:1000B0000E94900182EB90E061E00E94900187EA4B
:1000C00090E062E00E9490010E942802FFCF089514
:1000D0003B9A98E0F89488B1892788B97894FACF48
:1000E0001F931091010170910001A8E2B4E09FEF0D
:1000F00050E04FEF20E030E01EC08C91882311F0DB
:10010000871B8C938C91891718F4882319F00BC0E6
:10011000882341F4F901ED5DFB4FE081E41710F411
:10012000892F03C0892F652FE42F2F5F3F4F119632
:10013000982F562F4E2F622F2117F8F290932E04EE
:1001400050932D0440932F0490930001FFCF3B9ACE
:100150008DE80E945C0298E0F89488B1892788B9FC
:100160007894FACF3A9A87E70E945C0294E0F89478
:1001700088B1892788B97894FACF399A8DE00E949E
:100180005C0292E0F89488B1892788B97894FACF14
:10019000409A0F920FB6F8940F921F9211242F924B
:1001A0003F924F925F926F927F928F929F92AF9207
:1001B000BF92CF92DF92EF92FF920F931F932F93F4
:1001C0003F934F935F936F937F938F939F93AF93DF
:1001D000BF93CF93DF93EF93FF93E7E1F1E020919B
:1001E0000601220FE20F20E0F21F2DB73EB7208359
:1001F0003183209106013091080141E0240F23173B
:1002000008F020E020930601209109013FEF321B06
:100210003093B2002091B6002071E1F7E7E1F1E000
:1002200020910601220FE20F20E0F21F2081318190
:100230002DBF3EBFFF91EF91DF91CF91BF91AF9165
:100240009F918F917F916F915F914F913F912F91EE
:100250001F910F91FF90EF90DF90CF90BF90AF90E4
:100260009F908F907F906F905F904F903F902F90D6
:100270001F900F900FBE0F90409818954098389A95
:1002800020E0209370002093B1002093B6002093CB
:10029000B4002093B20020E02093B10020937000BE
:1002A00020E22093B60020E02093B3002093B40016
:1002B0002093B00023E02093B10020E02093B2000F
:1002C0002091B6002270E1F72091B6002170E1F78D
:1002D0002091B6002870E1F72091B6002470E1F774
:1002E0002091B6002071E1F720913700217019F0BC
:1002F00021E02093370020913700227019F022E08E
:100300002093370020913700247019F024E02093C7
:10031000370021E02093700080E08093B2000895C0
:100320002DB73EB72093020130930301E0930401FF
:10033000F0930501E1E1F1E020910601E20F20E0F8
:10034000F21F6083EBE0F1E020910601E20F20E074
:10035000F21F20E0208320910601239530E8239F9F
:10036000E02DF12D1124319723E231E0E20FF31F4C
:10037000EDBFFEBF8F939F9378940F920FB6F894C2
:100380000F921F9211242F923F924F925F926F9281
:100390007F928F929F92AF92BF92CF92DF92EF9215
:1003A000FF920F931F932F933F934F935F936F93FE
:1003B0007F938F939F93AF93BF93CF93DF93EF93ED
:1003C000FF93E7E1F1E020910601220FE20F20E028
:1003D000F21F2DB73EB720833183F8942091060198
:1003E000239520930601209108012395209308016D
:1003F000F0910501E0910401309103012091020187
:100400002DBF3EBF089526E02093530020917A002F
:100410002F7720937A00209150002068209350007D
:100420008FEF0E945C020C9406021124F89420E0E5
:1004300020930601209307012093080120930901CE
:1004400086E094E0969587956FEF0E94900108955D
:1004500020E0209306010E943E01E7E1F1E02091B7
:100460000601220FE20F20E0F21F208131812DBF13
:100470003EBFFF91EF91DF91CF91BF91AF919F91DF
:100480008F917F916F915F914F913F912F911F912C
:100490000F91FF90EF90DF90CF90BF90AF909F9023
:1004A0008F907F906F905F904F903F902F901F9014
:1004B0000F900FBE0F9008950F920FB6F8940F9201
:1004C0001F9211242F923F924F925F926F927F92D0
:1004D0008F929F92AF92BF92CF92DF92EF92FF9254
:1004E0000F931F932F933F934F935F936F937F933C
:1004F0008F939F93AF93BF93CF93DF93EF93FF932C
:10050000E7E1F1E020910601220FE20F20E0F21F67
:100510002DB73EB720833183EBE0F1E02091060157
:10052000E20F20E0F21F8083E7E1F1E02091060175
:10053000220FE20F20E0F21F208131812DBF3EBF4C
:10054000FF91EF91DF91CF91BF91AF919F918F91EB
:100550007F916F915F914F913F912F911F910F91DB
:10056000FF90EF90DF90CF90BF90AF909F908F90D3
:100570007F906F905F904F903F902F901F900F90C3
:100580000FBE0F90089522E02093C000292F2093E2
:10059000C500282F2093C40026E02093C20028E045
:1005A0002093C10008952F938093C6002091C0002E
:1005B00025FFFCCF2F9108958F93892F0E94D3029E
:1005C0008F910E94D30208952F938093C6002091AB
:1005D000C00026FFFCCF2091C00020642093C00003
:1005E0002F9108950E94E4028F93892F0E94E402C4
:1005F0008F91089580934A00862F0E94E402872FEE
:100600000E94E40280914A000E94E40280934A0022
:10061000892F0E94E40280914A0008950E2F1F2F17
:10062000282FE82FF92F80810E94E402E02FF12F7C
:10063000822F08950E940E03815090406150D1F79F
:060640000895F894FFCFBD
:020646000505A8
:00000001FF
