:100000000C9434000C9451000C9451000C94510049
:100010000C9451000C9451000C9451000C9451001C
:100020000C9451000C94C0000C9451000C9451009D
:100030000C9451000C9451000C9451000C945100FC
:100040000C9451000C9451000C9451000C945100EC
:100050000C9451000C9451000C9451000C945100DC
:100060000C9451000C94510011241FBECFEFD8E026
:10007000DEBFCDBF11E0A0E0B1E0EAE8F6E002C0EB
:1000800005900D92A230B107D9F714E0A2E0B1E0DB
:1000900001C01D92A033B107E1F70E9453000C94F8
:1000A00043030C9400000E94090284EB90E060E09E
:1000B0000E94840188EA90E061E00E9484010E942D
:1000C0001C02FFCF08953B9A98E0F89488B18927E5
:1000D00088B97894FACF1F931091010170910001B3
:1000E000A8E2B4E05FEF60E09FEF20E030E018C0EE
:1000F0008C91882311F0871B8C938C91851708F4C1
:10010000582F882331F4F901ED5DFB4FE081E917A9
:1001100010F0462FE92F2F5F3F4F1196642F9E2F2F
:10012000422F211728F350932E0460932D049093AF
:100130002F0450930001FFCF1F933B9A18E0F894CF
:1001400088B1812788B978948DE80E947E02F7CF24
:100150001F933A9A14E0F89488B1812788B978946B
:1001600087E70E947E02F7CF1F93399A12E0F89436
:1001700088B1812788B978948DE00E947E02F7CFFC
:10018000409A0F920FB6F8940F921F9211242F925B
:100190003F924F925F926F927F928F929F92AF9217
:1001A000BF92CF92DF92EF92FF920F931F932F9304
:1001B0003F934F935F936F937F938F939F93AF93EF
:1001C000BF93CF93DF93EF93FF93E7E1F1E02091AB
:1001D0000601220FE20F20E0F21F2DB73EB7208369
:1001E0003183209106013091080141E0240F23174B
:1001F00008F020E020930601209109013FEF321B17
:100200003093B200E7E1F1E020910601220FE20F06
:1002100020E0F21F208131812DBF3EBFFF91EF9181
:10022000DF91CF91BF91AF919F918F917F916F910E
:100230005F914F913F912F911F910F91FF90EF9000
:10024000DF90CF90BF90AF909F908F907F906F90F6
:100250005F904F903F902F901F900F900FBE0F9088
:10026000409818954098389A20E020937000209389
:10027000B1002093B6002093B4002093B20020E098
:100280002093B1002093700020E22093B60020E07C
:100290002093B3002093B4002093B00023E0209378
:1002A000B10020E02093B2002091B6002270E1F767
:1002B0002091B6002170E1F72091B6002870E1F797
:1002C0002091B6002470E1F72091B6002071E1F78B
:1002D00020913700217019F021E020933700209100
:1002E0003700227019F022E0209337002091370068
:1002F000247019F024E02093370021E0209370004F
:1003000080E08093B20008952DB73EB7209302019C
:1003100030930301E0930401F0930501E1E1F1E082
:1003200020910601E20F20E0F21F6083EBE0F1E094
:1003300020910601E20F20E0F21F20E020832091AF
:100340000601239530E8239FE02DF12D11243197EC
:1003500023E231E0E20FF31FEDBFFEBF8F939F93C7
:1003600078940F920FB6F8940F921F9211242F9247
:100370003F924F925F926F927F928F929F92AF9235
:10038000BF92CF92DF92EF92FF920F931F932F9322
:100390003F934F935F936F937F938F939F93AF930D
:1003A000BF93CF93DF93EF93FF93E7E1F1E02091C9
:1003B0000601220FE20F20E0F21F2DB73EB7208387
:1003C0003183F89420910601239520930601209112
:1003D0000801239520930801F0910501E0910401A3
:1003E00030910301209102012DBF3EBF089526E008
:1003F0002093530020917A002F7720937A00209148
:1004000050002068209350008FEF0E947E020C94D1
:10041000FA011124F89420E02093060120930701AB
:1004200020930801209309018EEE93E0969587951D
:100430006FEF0E948401089520E0209306010F933E
:100440001F9300E010910801209109013FEF4FEF49
:1004500050E060910A01A1E1B1E0EBE0F1E07081D0
:100460008C91772321F0662311F4721B708373172C
:1004700018F4772309F0372F772321F4841710F429
:10048000482F502F119631960395011740F3309362
:100490000901509306011F910F910E943201E7E17B
:1004A000F1E020910601220FE20F20E0F21F2081EF
:1004B00031812DBF3EBFFF91EF91DF91CF91BF9171
:1004C000AF919F918F917F916F915F914F913F91EC
:1004D0002F911F910F91FF90EF90DF90CF90BF90E1
:1004E000AF909F908F907F906F905F904F903F90D4
:1004F0002F901F900F900FBE0F9008950F920FB680
:10050000F8940F921F9211242F923F924F925F9274
:100510006F927F928F929F92AF92BF92CF92DF9213
:10052000EF92FF920F931F932F933F934F935F93FD
:100530006F937F938F939F93AF93BF93CF93DF93EB
:10054000EF93FF93E7E1F1E020910601220FE20F24
:1005500020E0F21F2DB73EB720833183EBE0F1E0BE
:1005600020910601E20F20E0F21F8083E7E1F1E035
:1005700020910601220FE20F20E0F21F208131813D
:100580002DBF3EBFFF91EF91DF91CF91BF91AF9112
:100590009F918F917F916F915F914F913F912F919B
:1005A0001F910F91FF90EF90DF90CF90BF90AF9091
:1005B0009F908F907F906F905F904F903F902F9083
:1005C0001F900F900FBE0F90089522E02093C0005F
:1005D000292F2093C500282F2093C40026E02093C4
:1005E000C20028E02093C10008952F938093C60095
:1005F0002091C00025FFFCCF2F9108958F93892F64
:100600000E94F5028F910E94F50208952F93809326
:10061000C6002091C00026FFFCCF2091C0002064BE
:100620002093C0002F9108950E9406038F93892F75
:100630000E9406038F91089580934A00862F0E949E
:100640000603872F0E94060380914A000E9406033A
:1006500080934A00892F0E94060380914A000895E2
:100660000E2F1F2F282FE82FF92F80810E940603BD
:10067000E02FF12F822F08950E9430038150904087
:0A0680006150D1F70895F894FFCF00
:02068A00050564
:00000001FF
