:100000000C9434000C943E000C943E000C943E0082
:100010000C943E000C943E000C943E000C943E0068
:100020000C943E000C946F000C943E000C943E0027
:100030000C943E000C943E000C943E000C943E0048
:100040000C943E000C943E000C943E000C943E0038
:100050000C943E000C943E000C943E000C943E0028
:100060000C943E000C943E0011241FBECFEFD8E04C
:10007000DEBFCDBF0E9440000C946B010C940000C9
:100080000E940801FFCF0895549A24EF31E0F894BC
:100090005C9AC9010197F1F75C987894F8CF399A86
:1000A00092E0F89488B1892788B97894FACF3A9A7F
:1000B00094E0F89488B1892788B97894FACF3B9A6C
:1000C00098E0F89488B1892788B97894FACF3C9A57
:1000D00090E1F89488B1892788B97894FACF409A4A
:1000E0000F920FB6F8940F921F9211242F923F9205
:1000F0004F925F926F927F928F929F92AF92BF9238
:10010000CF92DF92EF92FF920F931F932F933F9323
:100110004F935F936F937F938F939F93AF93BF930F
:10012000CF93DF93EF93FF93FF91EF91DF91CF9107
:10013000BF91AF919F918F917F916F915F914F91FF
:100140003F912F911F910F91FF90EF90DF90CF90F3
:10015000BF90AF909F908F907F906F905F904F90E7
:100160003F902F901F900F900FBE0F9040981895C2
:10017000F8944098389A20E0209370002093B100C2
:100180002093B6002093B4002093B20020E0209387
:10019000B1002093700020E22093B60020E020936D
:1001A000B3002093B4002093B00023E02093B1006B
:1001B00020E02093B2002091B6002270E1F7209158
:1001C000B6002170E1F72091B6002870E1F7209188
:1001D000B6002470E1F72091B6002071E1F720917C
:1001E0003700217019F021E020933700209137006B
:1001F000227019F022E020933700209137002470FC
:1002000019F024E02093370021E020937000089536
:1002100011240E94B8007894089522E02093C00031
:10022000292F2093C500282F2093C40026E0209377
:10023000C20028E02093C10008952F938093C60048
:100240002091C00025FFFCCF2F9108958F93892F17
:100250000E941D018F910E941D0108952F9380938C
:10026000C6002091C00026FFFCCF2091C000206472
:100270002093C0002F9108950E942E018F93892F03
:100280000E942E018F91089580934A00862F0E942C
:100290002E01872F0E942E0180914A000E942E017C
:1002A00080934A00892F0E942E0180914A00089570
:1002B0000E2F1F2F282FE82FF92F80810E942E014B
:1002C000E02FF12F822F08950E9458018150904015
:0A02D0006150D1F70895F894FFCFB4
:00000001FF
