:100000000C9434000C9451000C9451000C94510049
:100010000C9451000C9451000C9451000C9451001C
:100020000C9451000C94C9000C9451000C94510094
:100030000C9451000C9451000C9451000C945100FC
:100040000C9451000C9451000C9451000C945100EC
:100050000C9451000C9451000C9451000C945100DC
:100060000C9451000C94510011241FBECFEFD8E026
:10007000DEBFCDBF11E0A0E0B1E0E6EDF6E002C0EA
:1000800005900D92A230B107D9F714E0A2E0B1E0DB
:1000900001C01D92AF32B107E1F70E9453000C94EA
:1000A00069030C9400000E9410028AE790E060E06F
:1000B0000E948B0182E890E061E00E948B018AE857
:1000C00090E062E00E948B010E942302FFCF2AE0B1
:1000D000660F771F881F991F2A95D1F728EE33E006
:1000E00040E050E00E944703822F81500E94E402CA
:1000F00008950895399A92E0F89488B1892788B9CB
:100100007894FACF3A9A94E0F89488B1892788B91C
:100110007894FACF3B9A98E0F89488B1892788B907
:100120007894FACF3B9A98E0F89488B1892788B9F7
:100130007894FACF1F931091010170910001A7E20A
:10014000B4E06FEF50E09FEF20E030E018C08C91FA
:10015000882311F0871B8C938C91861708F4682FE5
:10016000882331F4F901EE5DFB4FE081E91710F0CF
:10017000452FE92F2F5F3F4F1196542F9E2F422F6F
:10018000211728F360932D0450932C0490932E0490
:10019000FFCF409A0F920FB6F8940F921F9211243E
:1001A0002F923F924F925F926F927F928F929F9287
:1001B000AF92BF92CF92DF92EF92FF920F931F9375
:1001C0002F933F934F935F936F937F938F939F935F
:1001D000AF93BF93CF93DF93EF93FF93E6E1F1E00B
:1001E00020910601220FE20F20E0F21F2DB73EB74B
:1001F00020833183209106013091080141E0240FD2
:10020000231708F020E02093060120910901209394
:10021000B200E6E1F1E020910601220FE20F20E0BA
:10022000F21F208131812DBF3EBFFF91EF91DF9101
:10023000CF91BF91AF919F918F917F916F915F917E
:100240004F913F912F911F910F91FF90EF90DF9071
:10025000CF90BF90AF909F908F907F906F905F9066
:100260004F903F902F901F900F900FBE0F9040988F
:1002700018954098389A20E0209370002093B100A0
:100280002093B6002093B4002093B20020E0209386
:10029000B1002093700020E22093B60020E020936C
:1002A000B3002093B4002093B00023E02093B1006A
:1002B00020E02093B2002091B6002270E1F7209157
:1002C000B6002170E1F72091B6002870E1F7209187
:1002D000B6002470E1F72091B6002071E1F720917B
:1002E0003700217019F021E020933700209137006A
:1002F000227019F022E020933700209137002470FB
:1003000019F024E02093370021E02093700080E072
:100310008093090108952DB73EB7209302013093D1
:100320000301E0930401F0930501E0E1F1E0209185
:100330000601E20F20E0F21F6083EAE0F1E0209185
:100340000601E20F20E0F21F20E020832091060149
:10035000239530E8239FE02DF12D1124319722E2DF
:1003600031E0E20FF31FEDBFFEBF8F939F937894B0
:100370000F920FB6F8940F921F9211242F923F9272
:100380004F925F926F927F928F929F92AF92BF92A5
:10039000CF92DF92EF92FF920F931F932F933F9391
:1003A0004F935F936F937F938F939F93AF93BF937D
:1003B000CF93DF93EF93FF93E6E1F1E02091060105
:1003C000220FE20F20E0F21F2DB73EB720833183CA
:1003D000F8942091060123952093060120910801AD
:1003E000239520930801F0910501E09104013091DB
:1003F0000301209102012DBF3EBF089526E0209306
:1004000053002FEF20930A0120917A002F77209339
:100410007A00209150002068209350000C94040230
:100420001124F89420E020930601209307012093E3
:100430000801209309018CEF93E0969587956FEF63
:100440000E948B01089520E0209306010E9439014B
:10045000E6E1F1E020910601220FE20F20E0F21F19
:10046000208131812DBF3EBFFF91EF91DF91CF9170
:10047000BF91AF919F918F917F916F915F914F91BC
:100480003F912F911F910F91FF90EF90DF90CF90B0
:10049000BF90AF909F908F907F906F905F904F90A4
:1004A0003F902F901F900F900FBE0F9008950F92C6
:1004B0000FB6F8940F921F9211242F923F924F92F1
:1004C0005F926F927F928F929F92AF92BF92CF92E4
:1004D000DF92EF92FF920F931F932F933F934F93CF
:1004E0005F936F937F938F939F93AF93BF93CF93BC
:1004F000DF93EF93FF93E6E1F1E020910601220FF5
:10050000E20F20E0F21F2DB73EB720833183EAE0EF
:10051000F1E020910601E20F20E0F21F80830F93AB
:100520001F9300E010910801209109013FEF4FEF68
:1005300050E0A0E1B1E0EAE0F1E070818C91772336
:1005400011F0721B7083731708F4372F772321F48F
:100550008417E0F7482F502F119631960395011715
:1005600060F3509306011F910F91E6E1F1E02091B5
:100570000601220FE20F20E0F21F208131812DBF02
:100580003EBFFF91EF91DF91CF91BF91AF919F91CE
:100590008F917F916F915F914F913F912F911F911B
:1005A0000F91FF90EF90DF90CF90BF90AF909F9012
:1005B0008F907F906F905F904F903F902F901F9003
:1005C0000F900FBE0F9008952FEF281B2093090165
:1005D000089522E02093C000292F2093C500282FE2
:1005E0002093C40026E02093C20028E02093C1009D
:1005F00008952F938093C6002091C00025FFFCCF63
:100600002F9108958F93892F0E94F9028F910E9454
:10061000F90208952F938093C6002091C00026FF11
:10062000FCCF2091C00020642093C0002F9108953A
:100630000E940A038F93892F0E940A038F910895C5
:1006400080934A00862F0E940A03872F0E940A0384
:1006500080914A000E940A0380934A00892F0E94D9
:100660000A0380914A0008950E2F1F2F282FE82F8C
:10067000F92F80810E940A03E02FF12F822F089525
:100680000E943403815090406150D1F70895A1E257
:100690001A2EAA1BBB1BFD010DC0AA1FBB1FEE1FFC
:1006A000FF1FA217B307E407F50720F0A21BB30B47
:1006B000E40BF50B661F771F881F991F1A9469F7C3
:1006C00060957095809590959B01AC01BD01CF011F
:0606D0000895F894FFCF2D
:0206D600050518
:00000001FF
