:100000000C9434000C943E000C943E000C943E0082
:100010000C943E000C943E000C943E000C94A800FE
:100020000C943E000C943E000C943E000C943E0058
:100030000C943E000C943E000C943E000C943E0048
:100040000C943E000C943E000C943E000C943E0038
:100050000C943E000C943E000C943E000C943E0028
:100060000C943E000C943E0011241FBECFEFD8E04C
:10007000DEBFCDBF0E9440000C9470050C940000C0
:100080000E94F10287E990E060E00E94B0018AE8F6
:1000900090E061E00E94B0018DE790E062E00E9494
:1000A000B00180E790E063E00E94B00183E690E059
:1000B00064E00E94B00182E690E00E94D9040E94B0
:1000C0002802FFCF08951F933C9A10E1F89488B15D
:1000D000812788B9789488E290E00E943703F6CFB0
:1000E0001F933B9A18E0F89488B1812788B97894D7
:1000F00084E190E00E943703F6CF1F933A9A14E010
:10010000F89488B1812788B978948FE090E00E94B4
:100110003703F6CF1F93399A12E0F89488B18127FC
:1001200088B978948AE090E00E943703F6CFCF93A5
:10013000DF93549AC0EDD7E0F8945C9ACE01019712
:10014000F1F75C98789485E090E00E943703F4CF53
:10015000209153002E7F209353000F920FB60F92E1
:100160001F9211242F923F924F925F926F927F9233
:100170008F929F92AF92BF92CF92DF92EF92FF92B7
:100180000F931F932F933F934F935F936F937F939F
:100190008F939F93AF93BF93CF93DF93EF93FF938F
:1001A000E0E1F1E020910701220FE20F20E0F21FD1
:1001B0002DB73EB72083318380E02FEF20930901D4
:1001C00020E020930A01582F20930701852FE6E3B2
:1001D000F1E020910701220FE20F20E0F21F2081C1
:1001E0003181422F432B59F0813099F041E0241B9B
:1001F00040E0340B20833183422F432B51F4EAE259
:10020000F1E020910701E20F20E0F21F81E08083FE
:1002100008C0EAE2F1E020910701E20F20E0F21FBE
:100220008081813019F0843009F012C0E0E3F1E000
:1002300020E080910701E80FF21F808120910901E1
:10024000821730F4809309012091070120930A015D
:1002500020910701239530910801231708F4B4CFAA
:1002600020910A0120930701E0E1F1E020910701CC
:10027000220FE20F20E0F21F208131812DBF3EBF0F
:10028000FF91EF91DF91CF91BF91AF919F918F91AE
:100290007F916F915F914F913F912F911F910F919E
:1002A000FF90EF90DF90CF90BF90AF909F908F9096
:1002B0007F906F905F904F903F902F901F900F9086
:1002C0000FBE0F901895F894A0911C01B0911D01DC
:1002D0002DB73EB72D933D93ED93FD93A0931C0155
:1002E000B0931D0120E02093000120930101209391
:1002F0000201209303012093040120930501209320
:1003000006012093070120930801209309012093FF
:100310000A0120930B0120930C0120930D0120E092
:100320002093700020E02093B10020E02093B600DD
:1003300020E02093B4002093B200809305016093E5
:100340000601A0911C01B0911D01FE91EE913E911C
:100350002E912DBF3EBFA0931C01B0931D010895A7
:10036000A0911C01B0911D012DB73EB72D933D9377
:10037000ED93FD93A0931C01B0931D01E0E3F1E028
:1003800020910701E20F20E0F21F6083EAE2F1E032
:1003900020910701E20F20E0F21F21E0208320914D
:1003A0000701239530E8239FE02DF12D319711248B
:1003B00022E431E0E20FF31FEDBFFEBF8F939F9366
:1003C0000F920FB60F921F9211242F923F924F92CD
:1003D0005F926F927F928F929F92AF92BF92CF92D5
:1003E000DF92EF92FF920F931F932F933F934F93C0
:1003F0005F936F937F938F939F93AF93BF93CF93AD
:10040000DF93EF93FF932DB73EB740910701440F61
:10041000E0E1F1E0E40F40E0F41F2193308320910C
:10042000070123952093070120910801239520932C
:100430000801A0911C01B0911D01FE91EE913E9129
:100440002E912DBF3EBFA0931C01B0931D010895B6
:1004500081E02FEF2093090120E020930A01582F1B
:1004600020930701852FE6E3F1E020910701220F99
:10047000E20F20E0F21F20813181422F432B59F0FF
:10048000813099F041E0241B40E0340B208331831C
:10049000422F432B51F4EAE2F1E020910701E20FF1
:1004A00020E0F21F81E0808308C0EAE2F1E02091C1
:1004B0000701E20F20E0F21F8081813019F08430C3
:1004C00009F012C0E0E3F1E020E080910701E80FBD
:1004D000F21F808120910901821730F48093090175
:1004E0002091070120930A01209107012395309163
:1004F0000801231708F4B4CF20910A0120930701C3
:10050000E0E1F1E020910701220FE20F20E0F21F6D
:10051000208131812DBF3EBFFF91EF91DF91CF91BF
:10052000BF91AF919F918F917F916F915F914F910B
:100530003F912F911F910F91FF90EF90DF90CF90FF
:10054000BF90AF909F908F907F906F905F904F90F3
:100550003F902F901F900F900FBE0F90789420E047
:100560002093700020E22093B60020E836E020932C
:10057000B30020E02093B40022E02093B000309339
:10058000B10020E02093B2002091B6002270E1F784
:100590002091B6002170E1F72091B6002870E1F7B4
:1005A0002091B6002470E1F72091B6002071E1F7A8
:1005B00020913700217019F021E02093370020911D
:1005C0003700227019F022E0209337002091370085
:1005D000247019F024E02093370022E0209370006B
:1005E000089511242EE131E020931C0130931D0168
:1005F000A0911C01B0911D012DB73EB72D933D93E5
:10060000ED93FD93A0931C01B0931D0184E06DE771
:100610000E94630180E496E0969587956FEF0E94B3
:10062000B001A0911C01B0911D01FE91EE913E918F
:100630002E912DBF3EBFA0931C01B0931D010895C4
:1006400026E02093530020930E0120917A002F770B
:1006500020937A0020915000206820935000209130
:10066000530021602093530088950C9425030F922A
:100670000FB6F8940F921F9211242F923F924F922F
:100680005F926F927F928F929F92AF92BF92CF9222
:10069000DF92EF92FF920F931F932F933F934F930D
:1006A0005F936F937F938F939F93AF93BF93CF93FA
:1006B000DF93EF93FF93E0E1F1E020910701220F38
:1006C000E20F20E0F21F2DB73EB720833183E6E32F
:1006D000F1E020910701220FE20F20E0F21F80835A
:1006E0009183EAE2F1E020910701E20F20E0F21F9E
:1006F00020E0208381E02FEF2093090120E0209368
:100700000A01582F20930701852FE6E3F1E020919D
:100710000701220FE20F20E0F21F20813181422FDA
:10072000432B59F0813099F041E0241B40E0340B19
:1007300020833183422F432B51F4EAE2F1E02091F0
:100740000701E20F20E0F21F81E0808308C0EAE2A7
:10075000F1E020910701E20F20E0F21F808181305B
:1007600019F0843009F012C0E0E3F1E020E080915C
:100770000701E80FF21F808120910901821730F4F0
:10078000809309012091070120930A01209107011C
:10079000239530910801231708F4B4CF20910A0162
:1007A00020930701E0E1F1E020910701220FE20F21
:1007B00020E0F21F208131812DBF3EBFFF91EF91DC
:1007C000DF91CF91BF91AF919F918F917F916F9169
:1007D0005F914F913F912F911F910F91FF90EF905B
:1007E000DF90CF90BF90AF909F908F907F906F9051
:1007F0005F904F903F902F901F900F900FBE0F90E3
:1008000078940895F894E6E3F1E020910701220F2F
:10081000E20F20E0F21F80839183EAE2F1E0209171
:100820000701E20F20E0F21F24E02083789408956E
:100830000F920FB6F8940F921F9211242F923F92AD
:100840004F925F926F927F928F929F92AF92BF92E0
:10085000CF92DF92EF92FF920F931F932F933F93CC
:100860004F935F936F937F938F939F93AF93BF93B8
:10087000CF93DF93EF93FF93E0E1F1E02091070145
:10088000220FE20F20E0F21F2DB73EB72083318305
:10089000EAE2F1E020910701E20F20E0F21F20E000
:1008A000208381E02FEF2093090120E020930A01AB
:1008B000582F20930701852FE6E3F1E020910701EF
:1008C000220FE20F20E0F21F20813181422F432BC3
:1008D00059F0813099F041E0241B40E0340B208333
:1008E0003183422F432B51F4EAE2F1E020910701DA
:1008F000E20F20E0F21F81E0808308C0EAE2F1E02D
:1009000020910701E20F20E0F21F8081813019F071
:10091000843009F012C0E0E3F1E020E080910701AB
:10092000E80FF21F808120910901821730F4809333
:1009300009012091070120930A01209107012395C5
:1009400030910801231708F4B4CF20910A012093B5
:100950000701E0E1F1E020910701220FE20F20E022
:10096000F21F208131812DBF3EBFFF91EF91DF91BA
:10097000CF91BF91AF919F918F917F916F915F9137
:100980004F913F912F911F910F91FF90EF90DF902A
:10099000CF90BF90AF909F908F907F906F905F901F
:1009A0004F903F902F901F900F900FBE0F90789414
:1009B0000895FC010995089520915F00F89430E8AE
:1009C000309361008093610020935F000895282F89
:1009D000220FE6E3F1E0E20F20E0F21F8081918137
:1009E0000895282FEAE2F1E0E20F20E0F21F808173
:1009F0000895809108010895282FE0E3F1E0E20FC7
:100A000020E0F21F8081089580910901089580916E
:100A10000A018A95089580910A01089580910D0137
:100A20000895089522E02093C000292F2093C50047
:100A3000282F2093C40026E02093C20028E02093B2
:100A4000C10008952F938093C6002091C00025FF18
:100A5000FCCF2F9108958F93892F0E9422058F91AB
:100A60000E94220508952F938093C6002091C00014
:100A700026FFFCCF2091C00020642093C0002F915E
:100A800008950E9433058F93892F0E9433058F911B
:100A9000089580934A00862F0E943305872F0E9475
:100AA000330580914A000E94330580934A00892FC4
:100AB0000E94330580914A0008950E2F1F2F282F82
:100AC000E82FF92F80810E943305E02FF12F822F2C
:100AD00008950E945D05815090406150D1F70895BE
:040AE000F894FFCFB8
:00000001FF
