:100000000C9434000C943E000C943E000C943E0082
:100010000C943E000C943E000C943E000C943E0068
:100020000C943E000C948A000C943E000C943E000C
:100030000C943E000C943E000C943E000C943E0048
:100040000C943E000C943E000C943E000C943E0038
:100050000C943E000C943E000C943E000C943E0028
:100060000C943E000C943E0011241FBECFEFD8E04C
:10007000DEBFCDBF0E9440000C94BF020C94000074
:100080000E94C7018BE790E060E00E9440018CE68F
:1000900090E061E00E9440018DE590E062E00E9406
:1000A00040010E94E801FFCF08953B9A98E0F89440
:1000B00088B1892788B97894FACF1F933B9A18E0C2
:1000C000F89488B1812788B9789489E10E94580210
:1000D00084E60E942902F4CF1F933A9A14E0F89420
:1000E00088B1812788B9789489E10E94580282E317
:1000F0000E942902F4CF1F93399A12E0F89488B134
:10010000812788B9789489E10E94580289E10E9488
:100110002902F4CF409A0F920FB6F8940F921F92D3
:1001200011242F923F924F925F926F927F928F9203
:100130009F92AF92BF92CF92DF92EF92FF920F9376
:100140001F932F933F934F935F936F937F938F935F
:100150009F93AF93BF93CF93DF93EF93FF93E6E12A
:10016000F1E020910401220FE20F20E0F21F2DB7F1
:100170003EB72083318320E020937000209104015A
:100180003091060141E0240F231708F020E020936E
:100190000401E6E1F1E020910401220FE20F20E0EA
:1001A000F21F208131812DBF3EBFE6E1F1E02091B9
:1001B0000401220FE20F20E0F21F208131812DBFC8
:1001C0003EBFFF91EF91DF91CF91BF91AF919F9192
:1001D0008F917F916F915F914F913F912F911F91DF
:1001E0000F91FF90EF90DF90CF90BF90AF909F90D6
:1001F0008F907F906F905F904F903F902F901F90C7
:100200000F900FBE0F90409818952FB720930901BB
:10021000F89420E0209370002093B0002093B10068
:100220002093B6002093B20020E22093B60023E092
:100230002093B1002091B6002270E1F72091B60022
:100240002170E1F72091B6002071E1F721E02093C1
:10025000370022E02093370024E0209337002091DC
:10026000090127FD7894089520E02093040120934C
:1002700005012093060120930701209308010895AA
:100280002DB73EB72093000130930101E0930201A6
:10029000F0930301E0E1F1E020910401E20F20E09E
:1002A000F21F6083EAE0F1E020910401E20F20E018
:1002B000F21F608320E0208320910401239530E821
:1002C000239FE02DF12D3197112422E231E0E20F3E
:1002D000F31FEDBFFEBF8F939F9378940F920FB6DD
:1002E000F8940F921F9211242F923F924F925F9297
:1002F0006F927F928F929F92AF92BF92CF92DF9236
:10030000EF92FF920F931F932F933F934F935F931F
:100310006F937F938F939F93AF93BF93CF93DF930D
:10032000EF93FF93E6E1F1E020910401220FE20F49
:1003300020E0F21F2DB73EB7208331832DB73EB7A3
:1003400040910401440FE6E1F1E0E40F40E0F41FC6
:10035000219330832091040123952093040120915F
:100360000601239520930601F0910301E09102011B
:1003700030910101209100012DBF3EBF089526E07C
:100380002093530084E60E9429020C94C201F89441
:100390002DB73EB72093000130930101E093020195
:1003A000F09303014098389A0E943401F0910301C0
:1003B000E091020130910101209100012DBF3EBF6B
:1003C0008EE793E0969587956FEF0E944001089520
:1003D00020E020930401E6E1F1E020910401220FE6
:1003E000E20F20E0F21F208131812DBF3EBFE6E108
:1003F000F1E020910401220FE20F20E0F21F2081A2
:1004000031812DBF3EBFFF91EF91DF91CF91BF9121
:10041000AF919F918F917F916F915F914F913F919C
:100420002F911F910F91FF90EF90DF90CF90BF9091
:10043000AF909F908F907F906F905F904F903F9084
:100440002F901F900F900FBE0F900E94050178947F
:10045000089580930701209107012531B0F02F33D3
:1004600010F42F5F12C0293610F42E5F0EC022390F
:1004700010F42D5F0AC02C3B10F42C5F06C0263E02
:1004800010F42B5F02C02A5F00C021952093B200B8
:100490002091B60024FDFCCF21E02093370020936B
:1004A0007000209153002160209353008895089597
:1004B000EAE0F1E020910401E20F20E0F21F8083E6
:1004C000089522E02093C000292F2093C500282FF3
:1004D0002093C40026E02093C20028E02093C100AE
:1004E00008952F938093C6002091C00025FFFCCF74
:1004F0002F9108958F93892F0E9471028F910E94EE
:10050000710208952F938093C6002091C00026FFAA
:10051000FCCF2091C00020642093C0002F9108954B
:100520000E9482028F93892F0E9482028F910895E8
:1005300080934A00862F0E948202872F0E948202A7
:1005400080914A000E94820280934A00892F0E9473
:10055000820280914A0008950E2F1F2F282FE82F26
:10056000F92F80810E948202E02FF12F822F0895BF
:100570000E94AC02815090406150D1F70895F894E8
:02058000FFCFAB
:00000001FF
