:100000000C9434000C9451000C9451000C94510049
:100010000C9451000C9451000C9451000C9451001C
:100020000C9451000C94E1000C9451000C9451007C
:100030000C9451000C9451000C9451000C945100FC
:100040000C9451000C9451000C9451000C945100EC
:100050000C9451000C9451000C9451000C945100DC
:100060000C9451000C94510011241FBECFEFD8E026
:10007000DEBFCDBF11E0A0E0B1E0EAE9F6E002C0EA
:1000800005900D92A230B107D9F714E0A2E0B1E0DB
:1000900001C01D92AE32B107E1F70E9453000C94EB
:1000A0004B030C9400000E944F020E9473018AE9E6
:1000B00090E060E00E94C60185EA90E061E00E9465
:1000C000C6018DEA90E062E00E94C6018AE990E0F4
:1000D00060E00E94C60185EA90E061E00E94C601EE
:1000E0008DEA90E062E00E94C6018AE990E060E05B
:1000F0000E94C60185EA90E061E00E94C6018DEA97
:1001000090E062E00E94C6010E945802FFCF2AE000
:10011000660F771F881F991F2A95D1F728EE33E0C5
:1001200040E050E00E942903822F81500E94C602C5
:1001300008950895399A24EF31E0F894419AC9015D
:100140000197F1F741987894F8CF3A9A94E0F894AF
:1001500088B1892788B97894FACF3B9A98E0F894C7
:1001600088B1892788B97894FACF3B9A98E0F894B7
:1001700088B1892788B97894FACF509101014091CC
:100180000001A1E2B4E0E6E2F4E020E030E09FEF1D
:1001900011C08081882321F0841B8083882319F477
:1001A0008C91891710F0892F01C0322F2F5F119683
:1001B0003196982F251768F330932B0490932C04D5
:1001C000FFCF409A0F920FB6F8940F921F9211240E
:1001D0002F923F924F925F926F927F928F929F9257
:1001E000AF92BF92CF92DF92EF92FF920F931F9345
:1001F0002F933F934F935F936F937F938F939F932F
:10020000AF93BF93CF93DF93EF93FF93E5E1F1E0DB
:1002100020910601220FE20F20E0F21F2DB73EB71A
:1002200020833183209153002E7F2093530020E0C0
:10023000309107014FEF50910801E9E0F1E0608152
:10024000662311F0651B6193641708F4462F23950C
:100250002317A8F34093080120E0309107014FEFE6
:1002600050910801E9E0F1E06081662301F0641734
:1002700008F4462F23952317B8F3409308012091E3
:1002800008012093B200E5E1F1E020910601220F80
:10029000E20F20E0F21F208131812DBF3EBFFF9190
:1002A000EF91DF91CF91BF91AF919F918F917F910E
:1002B0006F915F914F913F912F911F910F91FF90FF
:1002C000EF90DF90CF90BF90AF909F908F907F90F6
:1002D0006F905F904F903F902F901F900F900FBEA8
:1002E0000F9040981895F8944098389A20E0209301
:1002F00070002093B1002093B6002093B4002093A7
:10030000B20020E02093B1002093700020E22093FF
:10031000B60020E02093B3002093B4002093B000F7
:1003200023E02093B10020E02093B2002091B6009A
:100330002270E1F72091B6002170E1F72091B6001C
:100340002870E1F72091B6002470E1F72091B60003
:100350002071E1F720913700217019F021E02093FE
:10036000370020913700227019F022E020933700E7
:1003700020913700247019F024E02093370021E009
:100380002093700080E08093080108952DB73EB758
:100390002093020130930301E0930401F0930501DF
:1003A000EFE0F1E020910601E20F20E0F21F608310
:1003B000E9E0F1E020910601E20F20E0F21F20E0E9
:1003C000208320910601239530E8239FE02DF12D15
:1003D0001124319721E231E0E20FF31FEDBFFEBFA0
:1003E0008F939F930F920FB6F8940F921F92112440
:1003F0002F923F924F925F926F927F928F929F9235
:10040000AF92BF92CF92DF92EF92FF920F931F9322
:100410002F933F934F935F936F937F938F939F930C
:10042000AF93BF93CF93DF93EF93FF93E5E1F1E0B9
:1004300020910601220FE20F20E0F21F2DB73EB7F8
:10044000208331832091060123952093060120917A
:100450000701239520930701F0910501E091040124
:1004600030910301209102012DBF3EBF089526E087
:100470002093530020E02093090120917A002F77E8
:1004800020937A0020915000206820935000209102
:10049000530021602093530088950C943D02112451
:1004A0008EE694E0969587956FEF0E94C6010895B9
:1004B0000E94730180E080930801789408950F9260
:1004C0000FB6F8940F921F9211242F923F924F92E1
:1004D0005F926F927F928F929F92AF92BF92CF92D4
:1004E000DF92EF92FF920F931F932F933F934F93BF
:1004F0005F936F937F938F939F93AF93BF93CF93AC
:10050000DF93EF93FF93E5E1F1E020910601220FE5
:10051000E20F20E0F21F2DB73EB720833183E9E0E0
:10052000F1E020910601E20F20E0F21F8083E5E177
:10053000F1E020910601220FE20F20E0F21F20815E
:1005400031812DBF3EBFFF91EF91DF91CF91BF91E0
:10055000AF919F918F917F916F915F914F913F915B
:100560002F911F910F91FF90EF90DF90CF90BF9050
:10057000AF909F908F907F906F905F904F903F9043
:100580002F901F900F900FBE0F9008952FEF281BF4
:1005900020930801089522E02093C000292F209382
:1005A000C500282F2093C40026E02093C20028E035
:1005B0002093C10008952F938093C6002091C0001E
:1005C00025FFFCCF2F9108958F93892F0E94DB0286
:1005D0008F910E94DB0208952F938093C600209193
:1005E000C00026FFFCCF2091C00020642093C000F3
:1005F0002F9108950E94EC028F93892F0E94EC02A4
:100600008F91089580934A00862F0E94EC02872FD5
:100610000E94EC0280914A000E94EC0280934A0002
:10062000892F0E94EC0280914A0008950E2F1F2FFF
:10063000282FE82FF92F80810E94EC02E02FF12F64
:10064000822F08950E941603815090406150D1F787
:100650000895A1E21A2EAA1BBB1BFD010DC0AA1F03
:10066000BB1FEE1FFF1FA217B307E407F50720F01B
:10067000A21BB30BE40BF50B661F771F881F991F96
:100680001A9469F760957095809590959B01AC01DF
:0A069000BD01CF010895F894FFCFDB
:02069A00050554
:00000001FF
