:100000000C9434000C9451000C9451000C94510049
:100010000C9451000C9451000C9451000C9451001C
:100020000C9451000C94BA000C9451000C945100A3
:100030000C9451000C9451000C9451000C945100FC
:100040000C9451000C9451000C9451000C945100EC
:100050000C9451000C9451000C9451000C945100DC
:100060000C9451000C94510011241FBECFEFD8E026
:10007000DEBFCDBF11E0A0E0B1E0E4E3F3E002C0F9
:1000800005900D92A230B107D9F714E0A2E0B1E0DB
:1000900001C01D92A033B107E1F70E9453000C94F8
:1000A00098010C9400000E94C00080E197E224E6D1
:1000B00030E0F9013197F1F70197D9F78AEF0E9403
:1000C0000B01FCCF0895399A92E0F89488B1892702
:1000D00088B97894FACF3A9A94E0F89488B189274D
:1000E00088B97894FACF3B9A98E0F89488B1892738
:1000F00088B97894FACF3B9A98E0F89488B1892728
:1001000088B97894FACF1F93109101017091000182
:10011000A8E2B4E09FEF50E04FEF20E030E01EC0D7
:100120008C91882311F0871B8C938C91891718F47C
:10013000882319F00BC0882341F4F901ED5DFB4FD2
:10014000E081E41710F4892F03C0892F652FE42F75
:100150002F5F3F4F1196982F562F4E2F622F21174A
:10016000F8F290932E0450932D0440932F04909313
:100170000001FFCF409A20E020937000409818952E
:100180004098389A20E02093B1002093700020E23C
:100190002093B60020E02093B3002093B400209376
:1001A000B00023E02093B10020E02093B200209122
:1001B000B6002270E1F72091B6002170E1F720919E
:1001C000B6002870E1F72091B6002470E1F7209185
:1001D000B6002071E1F721E02093370022E0209360
:1001E000370024E02093370026E0209353007894D2
:1001F0000895089526E02093530020917A002F77E8
:1002000020937A00209150002068209350000C9495
:10021000FD00089508958093090120910901253179
:10022000B0F02F3310F42F5F12C0293610F42E5F78
:100230000EC0223910F42D5F0AC02C3B10F42C5F45
:1002400006C0263E10F42B5F02C02A5F00C0219535
:100250002093B2002091B60024FDFCCF21E0209332
:1002600037002093700020915300216020935300A9
:100270008895089522E02093C000292F2093C5007F
:10028000282F2093C40026E02093C20028E020936A
:10029000C10008952F938093C6002091C00025FFD0
:1002A000FCCF2F9108958F93892F0E944A018F913F
:1002B0000E944A0108952F938093C6002091C000A8
:1002C00026FFFCCF2091C00020642093C0002F9116
:1002D00008950E945B018F93892F0E945B018F918B
:1002E000089580934A00862F0E945B01872F0E9409
:1002F0005B0180914A000E945B0180934A00892F34
:100300000E945B0180914A0008950E2F1F2F282F15
:10031000E82FF92F80810E945B01E02FF12F822FBF
:1003200008950E948501815090406150D1F7089551
:04033000F894FFCF6F
:020334000505BD
:00000001FF
