:100000000C9434000C9451000C9451000C94510049
:100010000C9451000C9451000C9451000C9451001C
:100020000C9451000C94B7000C9451000C945100A6
:100030000C9451000C9451000C9451000C945100FC
:100040000C9451000C9451000C9451000C945100EC
:100050000C9451000C9451000C9451000C945100DC
:100060000C9451000C94510011241FBECFEFD8E026
:10007000DEBFCDBF11E0A0E0B1E0E0ECF5E002C0F2
:1000800005900D92A230B107D9F714E0A2E0B1E0DB
:1000900001C01D92AE32B107E1F70E9464000C94DA
:1000A000DE020C9400002AE0660F771F881F991F5C
:1000B0002A95D1F728EE33E040E050E00E94BC02E0
:1000C000822F0E94590208950E94E201399A4198B4
:1000D00061E070E080E090E00E945300F9CF089565
:1000E000549A24EF31E0F8945C9AC9010197F1F732
:1000F0005C987894F8CF399A92E0F89488B189277F
:1001000088B97894FACF3A9A94E0F89488B189271C
:1001100088B97894FACF3B9A98E0F89488B1892707
:1001200088B97894FACF5091010140910001A1E281
:10013000B4E0E6E2F4E020E030E09FEF11C080811F
:10014000882321F0841B8083882319F48C918917DC
:1001500010F0892F01C0322F2F5F11963196982F02
:10016000251768F330932B0490932C04FFCF409A0B
:100170000F920FB6F8940F921F9211242F923F9274
:100180004F925F926F927F928F929F92AF92BF92A7
:10019000CF92DF92EF92FF920F931F932F933F9393
:1001A0004F935F936F937F938F939F93AF93BF937F
:1001B000CF93DF93EF93FF93E5E1F1E02091060108
:1001C000220FE20F20E0F21F2DB73EB720833183CC
:1001D000209108012093B200E5E1F1E020910601B1
:1001E000220FE20F20E0F21F208131812DBF3EBFA0
:1001F000FF91EF91DF91CF91BF91AF919F918F913F
:100200007F916F915F914F913F912F911F910F912E
:10021000FF90EF90DF90CF90BF90AF909F908F9026
:100220007F906F905F904F903F902F901F900F9016
:100230000FBE0F9040981895F8944098389A20E097
:10024000209370002093B1002093B6002093B40057
:100250002093B20020E02093B1002093700020E2B0
:100260002093B60020E02093B3002093B4002093A5
:10027000B00023E02093B10020E02093B200209151
:10028000B6002270E1F72091B6002170E1F72091CD
:10029000B6002870E1F72091B6002470E1F72091B4
:1002A000B6002071E1F720913700217019F021E0AC
:1002B0002093370020913700227019F022E020931C
:1002C000370020913700247019F024E02093370084
:1002D00021E02093700080E08093080108952DB7FD
:1002E0003EB72093020130930301E0930401F093A1
:1002F0000501EFE0F1E020910601E20F20E0F21F9E
:100300006083E9E0F1E020910601E20F20E0F21FB6
:1003100020E0208320910601239530E8239FE02DE3
:10032000F12D1124319721E231E0E20FF31FEDBFEF
:10033000FEBF8F939F930F920FB6F8940F921F9268
:1003400011242F923F924F925F926F927F928F92E1
:100350009F92AF92BF92CF92DF92EF92FF920F9354
:100360001F932F933F934F935F936F937F938F933D
:100370009F93AF93BF93CF93DF93EF93FF93E5E109
:10038000F1E020910601220FE20F20E0F21F2DB7CD
:100390003EB72083318320910601239520930601E7
:1003A00020910701239520930701F0910501E09129
:1003B000040130910301209102012DBF3EBF089539
:1003C0000C94E00111240E941C0180E0809308013C
:1003D00080EC93E0969587956FEF0E946F0178947B
:1003E000089508950F920FB6F8940F921F9211245A
:1003F0002F923F924F925F926F927F928F929F9235
:10040000AF92BF92CF92DF92EF92FF920F931F9322
:100410002F933F934F935F936F937F938F939F930C
:10042000AF93BF93CF93DF93EF93FF93E5E1F1E0B9
:1004300020910601220FE20F20E0F21F2DB73EB7F8
:1004400020833183E9E0F1E020910601E20F20E012
:10045000F21F8083E5E1F1E020910601220FE20F17
:1004600020E0F21F208131812DBF3EBFFF91EF912F
:10047000DF91CF91BF91AF919F918F917F916F91BC
:100480005F914F913F912F911F910F91FF90EF90AE
:10049000DF90CF90BF90AF909F908F907F906F90A4
:1004A0005F904F903F902F901F900F900FBE0F9036
:1004B00008952FEF281B20930801089522E0209330
:1004C000C000292F2093C500282F2093C40026E0C8
:1004D0002093C20028E02093C10008952F938093B9
:1004E000C6002091C00025FFFCCF2F9108958F9367
:1004F000892F0E946E028F910E946E0208952F93A1
:100500008093C6002091C00026FFFCCF2091C00040
:1005100020642093C0002F9108950E947F028F9342
:10052000892F0E947F028F91089580934A00862F21
:100530000E947F02872F0E947F0280914A000E94C2
:100540007F0280934A00892F0E947F0280914A0097
:1005500008950E2F1F2F282FE82FF92F80810E943A
:100560007F02E02FF12F822F08950E94A90281506F
:1005700090406150D1F70895A1E21A2EAA1BBB1B2F
:10058000FD010DC0AA1FBB1FEE1FFF1FA217B3075F
:10059000E407F50720F0A21BB30BE40BF50B661F75
:1005A000771F881F991F1A9469F760957095809539
:1005B00090959B01AC01BD01CF010895F894FFCF48
:0205C00005052F
:00000001FF
