:100000000C9434000C9451000C9451000C94510049
:100010000C9451000C9451000C9451000C9451001C
:100020000C9451000C94B1000C9451000C945100AC
:100030000C9451000C9451000C9451000C945100FC
:100040000C9451000C9451000C9451000C945100EC
:100050000C9451000C9451000C9451000C945100DC
:100060000C9451000C94510011241FBECFEFD8E026
:10007000DEBFCDBF11E0A0E0B1E0EAE0F3E002C0F6
:1000800005900D92A230B107D9F714E0A2E0B1E0DB
:1000900001C01D92A033B107E1F70E9453000C94F8
:1000A00083010C9400000E94B7008AEF0E94F600C2
:1000B000FCCF0895399A92E0F89488B1892788B9DD
:1000C0007894FACF3A9A94E0F89488B1892788B95D
:1000D0007894FACF3B9A98E0F89488B1892788B948
:1000E0007894FACF3B9A98E0F89488B1892788B938
:1000F0007894FACF1F931091010170910001A8E24A
:10010000B4E09FEF50E04FEF20E030E01EC08C9154
:10011000882311F0871B8C938C91891718F48823FE
:1001200019F00BC0882341F4F901ED5DFB4FE0812C
:10013000E41710F4892F03C0892F652FE42F2F5F58
:100140003F4F1196982F562F4E2F622F2117F8F2FE
:1001500090932E0450932D0440932F04909300010C
:10016000FFCF409A20E02093700040981895409867
:10017000389A20E0209370002093B0002093B100C3
:100180002093B6002093B20020E22093B60023E033
:100190002093B1002091B6002270E1F72091B600C3
:1001A0002170E1F72091B6002071E1F721E0209362
:1001B000370022E02093370024E02093370026E028
:1001C0002093530078940895089526E020935300D7
:1001D00020917A002F7720937A0020915000206898
:1001E000209350000C94E80008950895809309012D
:1001F000209109012531B0F02F3310F42F5F12C088
:10020000293610F42E5F0EC0223910F42D5F0AC07B
:100210002C3B10F42C5F06C0263E10F42B5F02C06E
:100220002A5F00C021952093B2002091B60024FDE2
:10023000FCCF21E0209337002093700020915300E1
:100240002160209353008895089522E02093C000F8
:10025000292F2093C500282F2093C40026E0209347
:10026000C20028E02093C10008952F938093C60018
:100270002091C00025FFFCCF2F9108958F93892FE7
:100280000E9435018F910E94350108952F9380932C
:10029000C6002091C00026FFFCCF2091C000206442
:1002A0002093C0002F9108950E9446018F93892FBB
:1002B0000E9446018F91089580934A00862F0E94E4
:1002C0004601872F0E94460180914A000E94460104
:1002D00080934A00892F0E94460180914A00089528
:1002E0000E2F1F2F282FE82FF92F80810E94460103
:1002F000E02FF12F822F08950E94700181509040CD
:0A0300006150D1F70895F894FFCF83
:02030A000505E7
:00000001FF
