:100000000C9434000C9451000C9451000C94510049
:100010000C9451000C9451000C9451000C9451001C
:100020000C9451000C94B1000C9451000C945100AC
:100030000C9451000C9451000C9451000C945100FC
:100040000C9451000C9451000C9451000C945100EC
:100050000C9451000C9451000C9451000C945100DC
:100060000C9451000C94510011241FBECFEFD8E026
:10007000DEBFCDBF11E0A0E0B1E0ECE1F4E002C0F2
:1000800005900D92A230B107D9F714E0A2E0B1E0DB
:1000900001C01D92A133B107E1F70E9453000C94F7
:1000A0000C020C9400000E94B7008AEF0E947F01AE
:1000B000FCCF0895399A92E0F89488B1892788B9DD
:1000C0007894FACF3A9A94E0F89488B1892788B95D
:1000D0007894FACF3B9A98E0F89488B1892788B948
:1000E0007894FACF3B9A98E0F89488B1892788B938
:1000F0007894FACF1F931091010170910001A9E249
:10010000B4E09FEF50E04FEF20E030E01EC08C9154
:10011000882311F0871B8C938C91891718F48823FE
:1001200019F00BC0882341F4F901EC5DFB4FE0812D
:10013000E41710F4892F03C0892F652FE42F2F5F58
:100140003F4F1196982F562F4E2F622F2117F8F2FE
:1001500090932F0450932E04409330049093000109
:10016000FFCF409A20E02093700040981895409867
:10017000389A2FB720930B01F89420E02093700059
:100180002093B0002093B1002093B6002093B200DA
:1001900020E22093B60023E02093B1002091B60026
:1001A0002270E1F72091B6002170E1F72091B600AE
:1001B0002071E1F721E02093370022E020933700FF
:1001C00024E02093370020910B0127FD789426E04E
:1001D00020935300789408952DB73EB720930201E1
:1001E00030930301E0930401F0930501E2E1F1E0B3
:1001F00020910601E20F20E0F21F6083ECE0F1E0C5
:1002000020910601E20F20E0F21F608320E02083AE
:1002100020910601239530E8239FE02DF12D3197A1
:10022000112424E231E0E20FF31FEDBFFEBF8F93F4
:100230009F9378940F920FB6F8940F921F92112407
:100240002F923F924F925F926F927F928F929F92E6
:10025000AF92BF92CF92DF92EF92FF920F931F93D4
:100260002F933F934F935F936F937F938F939F93BE
:10027000AF93BF93CF93DF93EF93FF93E8E1F1E068
:1002800020910601220FE20F20E0F21F2DB73EB7AA
:10029000208331832DB73EB740910601440FE8E13A
:1002A000F1E0E40F40E0F41F219330832091060138
:1002B000239520930601209108012395209308019E
:1002C000F0910501E09104013091030120910201B8
:1002D0002DBF3EBF089526E02093530020917A0061
:1002E0002F7720937A0020915000206820935000AF
:1002F0000C946E01F8940E94B700089508958093BD
:100300000901209109012531B0F02F3310F42F5F3E
:1003100012C0293610F42E5F0EC0223910F42D5F62
:100320000AC02C3B10F42C5F06C0263E10F42B5F55
:1003300002C02A5F00C021952093B2002091B60030
:1003400024FDFCCF21E02093370020937000209102
:1003500053002160209353008895089522E0209354
:10036000C000292F2093C500282F2093C40026E029
:100370002093C20028E02093C10008952F9380931A
:10038000C6002091C00025FFFCCF2F9108958F93C8
:10039000892F0E94BE018F910E94BE0108952F9364
:1003A0008093C6002091C00026FFFCCF2091C000A2
:1003B00020642093C0002F9108950E94CF018F9355
:1003C000892F0E94CF018F91089580934A00862F34
:1003D0000E94CF01872F0E94CF0180914A000E9486
:1003E000CF0180934A00892F0E94CF0180914A005B
:1003F00008950E2F1F2F282FE82FF92F80810E949C
:10040000CF01E02FF12F822F08950E94F901815032
:0C04100090406150D1F70895F894FFCFA0
:02041C000505D4
:00000001FF
